{
  "_format": "hh-sol-artifact-1",
  "contractName": "MyNFT",
  "sourceName": "contracts/MyNFT.sol",
  "abi": [
    {
      "inputs": [],
      "stateMutability": "nonpayable",
      "type": "constructor"
    },
    {
      "anonymous": false,
      "inputs": [
        {
          "indexed": true,
          "internalType": "address",
          "name": "owner",
          "type": "address"
        },
        {
          "indexed": true,
          "internalType": "address",
          "name": "approved",
          "type": "address"
        },
        {
          "indexed": true,
          "internalType": "uint256",
          "name": "tokenId",
          "type": "uint256"
        }
      ],
      "name": "Approval",
      "type": "event"
    },
    {
      "anonymous": false,
      "inputs": [
        {
          "indexed": true,
          "internalType": "address",
          "name": "owner",
          "type": "address"
        },
        {
          "indexed": true,
          "internalType": "address",
          "name": "operator",
          "type": "address"
        },
        {
          "indexed": false,
          "internalType": "bool",
          "name": "approved",
          "type": "bool"
        }
      ],
      "name": "ApprovalForAll",
      "type": "event"
    },
    {
      "anonymous": false,
      "inputs": [
        {
          "indexed": true,
          "internalType": "address",
          "name": "previousOwner",
          "type": "address"
        },
        {
          "indexed": true,
          "internalType": "address",
          "name": "newOwner",
          "type": "address"
        }
      ],
      "name": "OwnershipTransferred",
      "type": "event"
    },
    {
      "anonymous": false,
      "inputs": [
        {
          "indexed": true,
          "internalType": "address",
          "name": "from",
          "type": "address"
        },
        {
          "indexed": true,
          "internalType": "address",
          "name": "to",
          "type": "address"
        },
        {
          "indexed": true,
          "internalType": "uint256",
          "name": "tokenId",
          "type": "uint256"
        }
      ],
      "name": "Transfer",
      "type": "event"
    },
    {
      "inputs": [
        {
          "internalType": "address",
          "name": "to",
          "type": "address"
        },
        {
          "internalType": "uint256",
          "name": "tokenId",
          "type": "uint256"
        }
      ],
      "name": "approve",
      "outputs": [],
      "stateMutability": "nonpayable",
      "type": "function"
    },
    {
      "inputs": [
        {
          "internalType": "address",
          "name": "owner",
          "type": "address"
        }
      ],
      "name": "balanceOf",
      "outputs": [
        {
          "internalType": "uint256",
          "name": "",
          "type": "uint256"
        }
      ],
      "stateMutability": "view",
      "type": "function"
    },
    {
      "inputs": [
        {
          "internalType": "uint256",
          "name": "tokenId",
          "type": "uint256"
        }
      ],
      "name": "getApproved",
      "outputs": [
        {
          "internalType": "address",
          "name": "",
          "type": "address"
        }
      ],
      "stateMutability": "view",
      "type": "function"
    },
    {
      "inputs": [
        {
          "internalType": "address",
          "name": "owner",
          "type": "address"
        },
        {
          "internalType": "address",
          "name": "operator",
          "type": "address"
        }
      ],
      "name": "isApprovedForAll",
      "outputs": [
        {
          "internalType": "bool",
          "name": "",
          "type": "bool"
        }
      ],
      "stateMutability": "view",
      "type": "function"
    },
    {
      "inputs": [
        {
          "internalType": "address",
          "name": "recipient",
          "type": "address"
        },
        {
          "internalType": "string",
          "name": "tokenURI",
          "type": "string"
        }
      ],
      "name": "mintNFT",
      "outputs": [
        {
          "internalType": "uint256",
          "name": "",
          "type": "uint256"
        }
      ],
      "stateMutability": "nonpayable",
      "type": "function"
    },
    {
      "inputs": [],
      "name": "name",
      "outputs": [
        {
          "internalType": "string",
          "name": "",
          "type": "string"
        }
      ],
      "stateMutability": "view",
      "type": "function"
    },
    {
      "inputs": [],
      "name": "number",
      "outputs": [
        {
          "internalType": "uint256",
          "name": "",
          "type": "uint256"
        }
      ],
      "stateMutability": "view",
      "type": "function"
    },
    {
      "inputs": [],
      "name": "owner",
      "outputs": [
        {
          "internalType": "address",
          "name": "",
          "type": "address"
        }
      ],
      "stateMutability": "view",
      "type": "function"
    },
    {
      "inputs": [
        {
          "internalType": "uint256",
          "name": "tokenId",
          "type": "uint256"
        }
      ],
      "name": "ownerOf",
      "outputs": [
        {
          "internalType": "address",
          "name": "",
          "type": "address"
        }
      ],
      "stateMutability": "view",
      "type": "function"
    },
    {
      "inputs": [],
      "name": "renounceOwnership",
      "outputs": [],
      "stateMutability": "nonpayable",
      "type": "function"
    },
    {
      "inputs": [
        {
          "internalType": "address",
          "name": "from",
          "type": "address"
        },
        {
          "internalType": "address",
          "name": "to",
          "type": "address"
        },
        {
          "internalType": "uint256",
          "name": "tokenId",
          "type": "uint256"
        }
      ],
      "name": "safeTransferFrom",
      "outputs": [],
      "stateMutability": "nonpayable",
      "type": "function"
    },
    {
      "inputs": [
        {
          "internalType": "address",
          "name": "from",
          "type": "address"
        },
        {
          "internalType": "address",
          "name": "to",
          "type": "address"
        },
        {
          "internalType": "uint256",
          "name": "tokenId",
          "type": "uint256"
        },
        {
          "internalType": "bytes",
          "name": "_data",
          "type": "bytes"
        }
      ],
      "name": "safeTransferFrom",
      "outputs": [],
      "stateMutability": "nonpayable",
      "type": "function"
    },
    {
      "inputs": [
        {
          "internalType": "address",
          "name": "operator",
          "type": "address"
        },
        {
          "internalType": "bool",
          "name": "approved",
          "type": "bool"
        }
      ],
      "name": "setApprovalForAll",
      "outputs": [],
      "stateMutability": "nonpayable",
      "type": "function"
    },
    {
      "inputs": [
        {
          "internalType": "bytes4",
          "name": "interfaceId",
          "type": "bytes4"
        }
      ],
      "name": "supportsInterface",
      "outputs": [
        {
          "internalType": "bool",
          "name": "",
          "type": "bool"
        }
      ],
      "stateMutability": "view",
      "type": "function"
    },
    {
      "inputs": [],
      "name": "symbol",
      "outputs": [
        {
          "internalType": "string",
          "name": "",
          "type": "string"
        }
      ],
      "stateMutability": "view",
      "type": "function"
    },
    {
      "inputs": [
        {
          "internalType": "uint256",
          "name": "tokenId",
          "type": "uint256"
        }
      ],
      "name": "tokenURI",
      "outputs": [
        {
          "internalType": "string",
          "name": "",
          "type": "string"
        }
      ],
      "stateMutability": "view",
      "type": "function"
    },
    {
      "inputs": [
        {
          "internalType": "address",
          "name": "from",
          "type": "address"
        },
        {
          "internalType": "address",
          "name": "to",
          "type": "address"
        },
        {
          "internalType": "uint256",
          "name": "tokenId",
          "type": "uint256"
        }
      ],
      "name": "transferFrom",
      "outputs": [],
      "stateMutability": "nonpayable",
      "type": "function"
    },
    {
      "inputs": [
        {
          "internalType": "address",
          "name": "newOwner",
          "type": "address"
        }
      ],
      "name": "transferOwnership",
      "outputs": [],
      "stateMutability": "nonpayable",
      "type": "function"
    },
    {
      "inputs": [
        {
          "internalType": "uint256",
          "name": "_number",
          "type": "uint256"
        }
      ],
      "name": "updateNumber",
      "outputs": [],
      "stateMutability": "nonpayable",
      "type": "function"
    }
  ],
  "bytecode": "0x608060405260016009553480156200001657600080fd5b506040518060400160405280600581526020017f4d794e46540000000000000000000000000000000000000000000000000000008152506040518060400160405280600381526020017f4e4654000000000000000000000000000000000000000000000000000000000081525081600090805190602001906200009b929190620001ab565b508060019080519060200190620000b4929190620001ab565b505050620000d7620000cb620000dd60201b60201c565b620000e560201b60201c565b620002c0565b600033905090565b6000600760009054906101000a900473ffffffffffffffffffffffffffffffffffffffff16905081600760006101000a81548173ffffffffffffffffffffffffffffffffffffffff021916908373ffffffffffffffffffffffffffffffffffffffff1602179055508173ffffffffffffffffffffffffffffffffffffffff168173ffffffffffffffffffffffffffffffffffffffff167f8be0079c531659141344cd1fd0a4f28419497f9722a3daafe3b4186f6b6457e060405160405180910390a35050565b828054620001b9906200025b565b90600052602060002090601f016020900481019282620001dd576000855562000229565b82601f10620001f857805160ff191683800117855562000229565b8280016001018555821562000229579182015b82811115620002285782518255916020019190600101906200020b565b5b5090506200023891906200023c565b5090565b5b80821115620002575760008160009055506001016200023d565b5090565b600060028204905060018216806200027457607f821691505b602082108114156200028b576200028a62000291565b5b50919050565b7f4e487b7100000000000000000000000000000000000000000000000000000000600052602260045260246000fd5b61304980620002d06000396000f3fe608060405234801561001057600080fd5b50600436106101215760003560e01c8063715018a6116100ad578063b88d4fde11610071578063b88d4fde146102f4578063c87b56dd14610310578063e985e9c514610340578063eacabe1414610370578063f2fde38b146103a057610121565b8063715018a6146102745780638381f58a1461027e5780638da5cb5b1461029c57806395d89b41146102ba578063a22cb465146102d857610121565b80631db05a88116100f45780631db05a88146101c057806323b872dd146101dc57806342842e0e146101f85780636352211e1461021457806370a082311461024457610121565b806301ffc9a71461012657806306fdde0314610156578063081812fc14610174578063095ea7b3146101a4575b600080fd5b610140600480360381019061013b9190611ff8565b6103bc565b60405161014d9190612444565b60405180910390f35b61015e61049e565b60405161016b919061245f565b60405180910390f35b61018e6004803603810190610189919061204a565b610530565b60405161019b91906123dd565b60405180910390f35b6101be60048036038101906101b99190611fbc565b6105b5565b005b6101da60048036038101906101d5919061204a565b6106cd565b005b6101f660048036038101906101f19190611e62565b6106d7565b005b610212600480360381019061020d9190611e62565b610737565b005b61022e6004803603810190610229919061204a565b610757565b60405161023b91906123dd565b60405180910390f35b61025e60048036038101906102599190611dfd565b610809565b60405161026b91906126c1565b60405180910390f35b61027c6108c1565b005b610286610949565b60405161029391906126c1565b60405180910390f35b6102a461094f565b6040516102b191906123dd565b60405180910390f35b6102c2610979565b6040516102cf919061245f565b60405180910390f35b6102f260048036038101906102ed9190611f2c565b610a0b565b005b61030e60048036038101906103099190611eb1565b610a21565b005b61032a6004803603810190610325919061204a565b610a83565b604051610337919061245f565b60405180910390f35b61035a60048036038101906103559190611e26565b610bd5565b6040516103679190612444565b60405180910390f35b61038a60048036038101906103859190611f68565b610c69565b60405161039791906126c1565b60405180910390f35b6103ba60048036038101906103b59190611dfd565b610d1d565b005b60007f80ac58cd000000000000000000000000000000000000000000000000000000007bffffffffffffffffffffffffffffffffffffffffffffffffffffffff1916827bffffffffffffffffffffffffffffffffffffffffffffffffffffffff1916148061048757507f5b5e139f000000000000000000000000000000000000000000000000000000007bffffffffffffffffffffffffffffffffffffffffffffffffffffffff1916827bffffffffffffffffffffffffffffffffffffffffffffffffffffffff1916145b80610497575061049682610e15565b5b9050919050565b6060600080546104ad90612917565b80601f01602080910402602001604051908101604052809291908181526020018280546104d990612917565b80156105265780601f106104fb57610100808354040283529160200191610526565b820191906000526020600020905b81548152906001019060200180831161050957829003601f168201915b5050505050905090565b600061053b82610e7f565b61057a576040517f08c379a000000000000000000000000000000000000000000000000000000000815260040161057190612621565b60405180910390fd5b6004600083815260200190815260200160002060009054906101000a900473ffffffffffffffffffffffffffffffffffffffff169050919050565b60006105c082610757565b90508073ffffffffffffffffffffffffffffffffffffffff168373ffffffffffffffffffffffffffffffffffffffff161415610631576040517f08c379a000000000000000000000000000000000000000000000000000000000815260040161062890612681565b60405180910390fd5b8073ffffffffffffffffffffffffffffffffffffffff16610650610eeb565b73ffffffffffffffffffffffffffffffffffffffff16148061067f575061067e81610679610eeb565b610bd5565b5b6106be576040517f08c379a00000000000000000000000000000000000000000000000000000000081526004016106b590612561565b60405180910390fd5b6106c88383610ef3565b505050565b8060098190555050565b6106e86106e2610eeb565b82610fac565b610727576040517f08c379a000000000000000000000000000000000000000000000000000000000815260040161071e906126a1565b60405180910390fd5b61073283838361108a565b505050565b61075283838360405180602001604052806000815250610a21565b505050565b6000806002600084815260200190815260200160002060009054906101000a900473ffffffffffffffffffffffffffffffffffffffff169050600073ffffffffffffffffffffffffffffffffffffffff168173ffffffffffffffffffffffffffffffffffffffff161415610800576040517f08c379a00000000000000000000000000000000000000000000000000000000081526004016107f7906125a1565b60405180910390fd5b80915050919050565b60008073ffffffffffffffffffffffffffffffffffffffff168273ffffffffffffffffffffffffffffffffffffffff16141561087a576040517f08c379a000000000000000000000000000000000000000000000000000000000815260040161087190612581565b60405180910390fd5b600360008373ffffffffffffffffffffffffffffffffffffffff1673ffffffffffffffffffffffffffffffffffffffff168152602001908152602001600020549050919050565b6108c9610eeb565b73ffffffffffffffffffffffffffffffffffffffff166108e761094f565b73ffffffffffffffffffffffffffffffffffffffff161461093d576040517f08c379a000000000000000000000000000000000000000000000000000000000815260040161093490612641565b60405180910390fd5b61094760006112f1565b565b60095481565b6000600760009054906101000a900473ffffffffffffffffffffffffffffffffffffffff16905090565b60606001805461098890612917565b80601f01602080910402602001604051908101604052809291908181526020018280546109b490612917565b8015610a015780601f106109d657610100808354040283529160200191610a01565b820191906000526020600020905b8154815290600101906020018083116109e457829003601f168201915b5050505050905090565b610a1d610a16610eeb565b83836113b7565b5050565b610a32610a2c610eeb565b83610fac565b610a71576040517f08c379a0000000000000000000000000000000000000000000000000000000008152600401610a68906126a1565b60405180910390fd5b610a7d84848484611524565b50505050565b6060610a8e82610e7f565b610acd576040517f08c379a0000000000000000000000000000000000000000000000000000000008152600401610ac490612601565b60405180910390fd5b6000600660008481526020019081526020016000208054610aed90612917565b80601f0160208091040260200160405190810160405280929190818152602001828054610b1990612917565b8015610b665780601f10610b3b57610100808354040283529160200191610b66565b820191906000526020600020905b815481529060010190602001808311610b4957829003601f168201915b505050505090506000610b77611580565b9050600081511415610b8d578192505050610bd0565b600082511115610bc2578082604051602001610baa9291906123b9565b60405160208183030381529060405292505050610bd0565b610bcb84611597565b925050505b919050565b6000600560008473ffffffffffffffffffffffffffffffffffffffff1673ffffffffffffffffffffffffffffffffffffffff16815260200190815260200160002060008373ffffffffffffffffffffffffffffffffffffffff1673ffffffffffffffffffffffffffffffffffffffff16815260200190815260200160002060009054906101000a900460ff16905092915050565b6000610c73610eeb565b73ffffffffffffffffffffffffffffffffffffffff16610c9161094f565b73ffffffffffffffffffffffffffffffffffffffff1614610ce7576040517f08c379a0000000000000000000000000000000000000000000000000000000008152600401610cde90612641565b60405180910390fd5b610cf1600861163e565b6000610cfd6008611654565b9050610d098482611662565b610d13818461183c565b8091505092915050565b610d25610eeb565b73ffffffffffffffffffffffffffffffffffffffff16610d4361094f565b73ffffffffffffffffffffffffffffffffffffffff1614610d99576040517f08c379a0000000000000000000000000000000000000000000000000000000008152600401610d9090612641565b60405180910390fd5b600073ffffffffffffffffffffffffffffffffffffffff168173ffffffffffffffffffffffffffffffffffffffff161415610e09576040517f08c379a0000000000000000000000000000000000000000000000000000000008152600401610e00906124a1565b60405180910390fd5b610e12816112f1565b50565b60007f01ffc9a7000000000000000000000000000000000000000000000000000000007bffffffffffffffffffffffffffffffffffffffffffffffffffffffff1916827bffffffffffffffffffffffffffffffffffffffffffffffffffffffff1916149050919050565b60008073ffffffffffffffffffffffffffffffffffffffff166002600084815260200190815260200160002060009054906101000a900473ffffffffffffffffffffffffffffffffffffffff1673ffffffffffffffffffffffffffffffffffffffff1614159050919050565b600033905090565b816004600083815260200190815260200160002060006101000a81548173ffffffffffffffffffffffffffffffffffffffff021916908373ffffffffffffffffffffffffffffffffffffffff160217905550808273ffffffffffffffffffffffffffffffffffffffff16610f6683610757565b73ffffffffffffffffffffffffffffffffffffffff167f8c5be1e5ebec7d5bd14f71427d1e84f3dd0314c0f7b2291e5b200ac8c7c3b92560405160405180910390a45050565b6000610fb782610e7f565b610ff6576040517f08c379a0000000000000000000000000000000000000000000000000000000008152600401610fed90612541565b60405180910390fd5b600061100183610757565b90508073ffffffffffffffffffffffffffffffffffffffff168473ffffffffffffffffffffffffffffffffffffffff16148061104357506110428185610bd5565b5b8061108157508373ffffffffffffffffffffffffffffffffffffffff1661106984610530565b73ffffffffffffffffffffffffffffffffffffffff16145b91505092915050565b8273ffffffffffffffffffffffffffffffffffffffff166110aa82610757565b73ffffffffffffffffffffffffffffffffffffffff1614611100576040517f08c379a00000000000000000000000000000000000000000000000000000000081526004016110f7906124c1565b60405180910390fd5b600073ffffffffffffffffffffffffffffffffffffffff168273ffffffffffffffffffffffffffffffffffffffff161415611170576040517f08c379a000000000000000000000000000000000000000000000000000000000815260040161116790612501565b60405180910390fd5b61117b8383836118b0565b611186600082610ef3565b6001600360008573ffffffffffffffffffffffffffffffffffffffff1673ffffffffffffffffffffffffffffffffffffffff16815260200190815260200160002060008282546111d6919061282d565b925050819055506001600360008473ffffffffffffffffffffffffffffffffffffffff1673ffffffffffffffffffffffffffffffffffffffff168152602001908152602001600020600082825461122d91906127a6565b92505081905550816002600083815260200190815260200160002060006101000a81548173ffffffffffffffffffffffffffffffffffffffff021916908373ffffffffffffffffffffffffffffffffffffffff160217905550808273ffffffffffffffffffffffffffffffffffffffff168473ffffffffffffffffffffffffffffffffffffffff167fddf252ad1be2c89b69c2b068fc378daa952ba7f163c4a11628f55a4df523b3ef60405160405180910390a46112ec8383836118b5565b505050565b6000600760009054906101000a900473ffffffffffffffffffffffffffffffffffffffff16905081600760006101000a81548173ffffffffffffffffffffffffffffffffffffffff021916908373ffffffffffffffffffffffffffffffffffffffff1602179055508173ffffffffffffffffffffffffffffffffffffffff168173ffffffffffffffffffffffffffffffffffffffff167f8be0079c531659141344cd1fd0a4f28419497f9722a3daafe3b4186f6b6457e060405160405180910390a35050565b8173ffffffffffffffffffffffffffffffffffffffff168373ffffffffffffffffffffffffffffffffffffffff161415611426576040517f08c379a000000000000000000000000000000000000000000000000000000000815260040161141d90612521565b60405180910390fd5b80600560008573ffffffffffffffffffffffffffffffffffffffff1673ffffffffffffffffffffffffffffffffffffffff16815260200190815260200160002060008473ffffffffffffffffffffffffffffffffffffffff1673ffffffffffffffffffffffffffffffffffffffff16815260200190815260200160002060006101000a81548160ff0219169083151502179055508173ffffffffffffffffffffffffffffffffffffffff168373ffffffffffffffffffffffffffffffffffffffff167f17307eab39ab6107e8899845ad3d59bd9653f200f220920489ca2b5937696c31836040516115179190612444565b60405180910390a3505050565b61152f84848461108a565b61153b848484846118ba565b61157a576040517f08c379a000000000000000000000000000000000000000000000000000000000815260040161157190612481565b60405180910390fd5b50505050565b606060405180602001604052806000815250905090565b60606115a282610e7f565b6115e1576040517f08c379a00000000000000000000000000000000000000000000000000000000081526004016115d890612661565b60405180910390fd5b60006115eb611580565b9050600081511161160b5760405180602001604052806000815250611636565b8061161584611a51565b6040516020016116269291906123b9565b6040516020818303038152906040525b915050919050565b6001816000016000828254019250508190555050565b600081600001549050919050565b600073ffffffffffffffffffffffffffffffffffffffff168273ffffffffffffffffffffffffffffffffffffffff1614156116d2576040517f08c379a00000000000000000000000000000000000000000000000000000000081526004016116c9906125e1565b60405180910390fd5b6116db81610e7f565b1561171b576040517f08c379a0000000000000000000000000000000000000000000000000000000008152600401611712906124e1565b60405180910390fd5b611727600083836118b0565b6001600360008473ffffffffffffffffffffffffffffffffffffffff1673ffffffffffffffffffffffffffffffffffffffff168152602001908152602001600020600082825461177791906127a6565b92505081905550816002600083815260200190815260200160002060006101000a81548173ffffffffffffffffffffffffffffffffffffffff021916908373ffffffffffffffffffffffffffffffffffffffff160217905550808273ffffffffffffffffffffffffffffffffffffffff16600073ffffffffffffffffffffffffffffffffffffffff167fddf252ad1be2c89b69c2b068fc378daa952ba7f163c4a11628f55a4df523b3ef60405160405180910390a4611838600083836118b5565b5050565b61184582610e7f565b611884576040517f08c379a000000000000000000000000000000000000000000000000000000000815260040161187b906125c1565b60405180910390fd5b806006600084815260200190815260200160002090805190602001906118ab929190611c21565b505050565b505050565b505050565b60006118db8473ffffffffffffffffffffffffffffffffffffffff16611bfe565b15611a44578373ffffffffffffffffffffffffffffffffffffffff1663150b7a02611904610eeb565b8786866040518563ffffffff1660e01b815260040161192694939291906123f8565b602060405180830381600087803b15801561194057600080fd5b505af192505050801561197157506040513d601f19601f8201168201806040525081019061196e9190612021565b60015b6119f4573d80600081146119a1576040519150601f19603f3d011682016040523d82523d6000602084013e6119a6565b606091505b506000815114156119ec576040517f08c379a00000000000000000000000000000000000000000000000000000000081526004016119e390612481565b60405180910390fd5b805181602001fd5b63150b7a0260e01b7bffffffffffffffffffffffffffffffffffffffffffffffffffffffff1916817bffffffffffffffffffffffffffffffffffffffffffffffffffffffff191614915050611a49565b600190505b949350505050565b60606000821415611a99576040518060400160405280600181526020017f30000000000000000000000000000000000000000000000000000000000000008152509050611bf9565b600082905060005b60008214611acb578080611ab49061297a565b915050600a82611ac491906127fc565b9150611aa1565b60008167ffffffffffffffff811115611b0d577f4e487b7100000000000000000000000000000000000000000000000000000000600052604160045260246000fd5b6040519080825280601f01601f191660200182016040528015611b3f5781602001600182028036833780820191505090505b5090505b60008514611bf257600182611b58919061282d565b9150600a85611b6791906129c3565b6030611b7391906127a6565b60f81b818381518110611baf577f4e487b7100000000000000000000000000000000000000000000000000000000600052603260045260246000fd5b60200101907effffffffffffffffffffffffffffffffffffffffffffffffffffffffffffff1916908160001a905350600a85611beb91906127fc565b9450611b43565b8093505050505b919050565b6000808273ffffffffffffffffffffffffffffffffffffffff163b119050919050565b828054611c2d90612917565b90600052602060002090601f016020900481019282611c4f5760008555611c96565b82601f10611c6857805160ff1916838001178555611c96565b82800160010185558215611c96579182015b82811115611c95578251825591602001919060010190611c7a565b5b509050611ca39190611ca7565b5090565b5b80821115611cc0576000816000905550600101611ca8565b5090565b6000611cd7611cd284612701565b6126dc565b905082815260208101848484011115611cef57600080fd5b611cfa8482856128d5565b509392505050565b6000611d15611d1084612732565b6126dc565b905082815260208101848484011115611d2d57600080fd5b611d388482856128d5565b509392505050565b600081359050611d4f81612fb7565b92915050565b600081359050611d6481612fce565b92915050565b600081359050611d7981612fe5565b92915050565b600081519050611d8e81612fe5565b92915050565b600082601f830112611da557600080fd5b8135611db5848260208601611cc4565b91505092915050565b600082601f830112611dcf57600080fd5b8135611ddf848260208601611d02565b91505092915050565b600081359050611df781612ffc565b92915050565b600060208284031215611e0f57600080fd5b6000611e1d84828501611d40565b91505092915050565b60008060408385031215611e3957600080fd5b6000611e4785828601611d40565b9250506020611e5885828601611d40565b9150509250929050565b600080600060608486031215611e7757600080fd5b6000611e8586828701611d40565b9350506020611e9686828701611d40565b9250506040611ea786828701611de8565b9150509250925092565b60008060008060808587031215611ec757600080fd5b6000611ed587828801611d40565b9450506020611ee687828801611d40565b9350506040611ef787828801611de8565b925050606085013567ffffffffffffffff811115611f1457600080fd5b611f2087828801611d94565b91505092959194509250565b60008060408385031215611f3f57600080fd5b6000611f4d85828601611d40565b9250506020611f5e85828601611d55565b9150509250929050565b60008060408385031215611f7b57600080fd5b6000611f8985828601611d40565b925050602083013567ffffffffffffffff811115611fa657600080fd5b611fb285828601611dbe565b9150509250929050565b60008060408385031215611fcf57600080fd5b6000611fdd85828601611d40565b9250506020611fee85828601611de8565b9150509250929050565b60006020828403121561200a57600080fd5b600061201884828501611d6a565b91505092915050565b60006020828403121561203357600080fd5b600061204184828501611d7f565b91505092915050565b60006020828403121561205c57600080fd5b600061206a84828501611de8565b91505092915050565b61207c81612861565b82525050565b61208b81612873565b82525050565b600061209c82612763565b6120a68185612779565b93506120b68185602086016128e4565b6120bf81612ab0565b840191505092915050565b60006120d58261276e565b6120df818561278a565b93506120ef8185602086016128e4565b6120f881612ab0565b840191505092915050565b600061210e8261276e565b612118818561279b565b93506121288185602086016128e4565b80840191505092915050565b600061214160328361278a565b915061214c82612ac1565b604082019050919050565b600061216460268361278a565b915061216f82612b10565b604082019050919050565b600061218760258361278a565b915061219282612b5f565b604082019050919050565b60006121aa601c8361278a565b91506121b582612bae565b602082019050919050565b60006121cd60248361278a565b91506121d882612bd7565b604082019050919050565b60006121f060198361278a565b91506121fb82612c26565b602082019050919050565b6000612213602c8361278a565b915061221e82612c4f565b604082019050919050565b600061223660388361278a565b915061224182612c9e565b604082019050919050565b6000612259602a8361278a565b915061226482612ced565b604082019050919050565b600061227c60298361278a565b915061228782612d3c565b604082019050919050565b600061229f602e8361278a565b91506122aa82612d8b565b604082019050919050565b60006122c260208361278a565b91506122cd82612dda565b602082019050919050565b60006122e560318361278a565b91506122f082612e03565b604082019050919050565b6000612308602c8361278a565b915061231382612e52565b604082019050919050565b600061232b60208361278a565b915061233682612ea1565b602082019050919050565b600061234e602f8361278a565b915061235982612eca565b604082019050919050565b600061237160218361278a565b915061237c82612f19565b604082019050919050565b600061239460318361278a565b915061239f82612f68565b604082019050919050565b6123b3816128cb565b82525050565b60006123c58285612103565b91506123d18284612103565b91508190509392505050565b60006020820190506123f26000830184612073565b92915050565b600060808201905061240d6000830187612073565b61241a6020830186612073565b61242760408301856123aa565b81810360608301526124398184612091565b905095945050505050565b60006020820190506124596000830184612082565b92915050565b6000602082019050818103600083015261247981846120ca565b905092915050565b6000602082019050818103600083015261249a81612134565b9050919050565b600060208201905081810360008301526124ba81612157565b9050919050565b600060208201905081810360008301526124da8161217a565b9050919050565b600060208201905081810360008301526124fa8161219d565b9050919050565b6000602082019050818103600083015261251a816121c0565b9050919050565b6000602082019050818103600083015261253a816121e3565b9050919050565b6000602082019050818103600083015261255a81612206565b9050919050565b6000602082019050818103600083015261257a81612229565b9050919050565b6000602082019050818103600083015261259a8161224c565b9050919050565b600060208201905081810360008301526125ba8161226f565b9050919050565b600060208201905081810360008301526125da81612292565b9050919050565b600060208201905081810360008301526125fa816122b5565b9050919050565b6000602082019050818103600083015261261a816122d8565b9050919050565b6000602082019050818103600083015261263a816122fb565b9050919050565b6000602082019050818103600083015261265a8161231e565b9050919050565b6000602082019050818103600083015261267a81612341565b9050919050565b6000602082019050818103600083015261269a81612364565b9050919050565b600060208201905081810360008301526126ba81612387565b9050919050565b60006020820190506126d660008301846123aa565b92915050565b60006126e66126f7565b90506126f28282612949565b919050565b6000604051905090565b600067ffffffffffffffff82111561271c5761271b612a81565b5b61272582612ab0565b9050602081019050919050565b600067ffffffffffffffff82111561274d5761274c612a81565b5b61275682612ab0565b9050602081019050919050565b600081519050919050565b600081519050919050565b600082825260208201905092915050565b600082825260208201905092915050565b600081905092915050565b60006127b1826128cb565b91506127bc836128cb565b9250827fffffffffffffffffffffffffffffffffffffffffffffffffffffffffffffffff038211156127f1576127f06129f4565b5b828201905092915050565b6000612807826128cb565b9150612812836128cb565b92508261282257612821612a23565b5b828204905092915050565b6000612838826128cb565b9150612843836128cb565b925082821015612856576128556129f4565b5b828203905092915050565b600061286c826128ab565b9050919050565b60008115159050919050565b60007fffffffff0000000000000000000000000000000000000000000000000000000082169050919050565b600073ffffffffffffffffffffffffffffffffffffffff82169050919050565b6000819050919050565b82818337600083830152505050565b60005b838110156129025780820151818401526020810190506128e7565b83811115612911576000848401525b50505050565b6000600282049050600182168061292f57607f821691505b6020821081141561294357612942612a52565b5b50919050565b61295282612ab0565b810181811067ffffffffffffffff8211171561297157612970612a81565b5b80604052505050565b6000612985826128cb565b91507fffffffffffffffffffffffffffffffffffffffffffffffffffffffffffffffff8214156129b8576129b76129f4565b5b600182019050919050565b60006129ce826128cb565b91506129d9836128cb565b9250826129e9576129e8612a23565b5b828206905092915050565b7f4e487b7100000000000000000000000000000000000000000000000000000000600052601160045260246000fd5b7f4e487b7100000000000000000000000000000000000000000000000000000000600052601260045260246000fd5b7f4e487b7100000000000000000000000000000000000000000000000000000000600052602260045260246000fd5b7f4e487b7100000000000000000000000000000000000000000000000000000000600052604160045260246000fd5b6000601f19601f8301169050919050565b7f4552433732313a207472616e7366657220746f206e6f6e20455243373231526560008201527f63656976657220696d706c656d656e7465720000000000000000000000000000602082015250565b7f4f776e61626c653a206e6577206f776e657220697320746865207a65726f206160008201527f6464726573730000000000000000000000000000000000000000000000000000602082015250565b7f4552433732313a207472616e736665722066726f6d20696e636f72726563742060008201527f6f776e6572000000000000000000000000000000000000000000000000000000602082015250565b7f4552433732313a20746f6b656e20616c7265616479206d696e74656400000000600082015250565b7f4552433732313a207472616e7366657220746f20746865207a65726f2061646460008201527f7265737300000000000000000000000000000000000000000000000000000000602082015250565b7f4552433732313a20617070726f766520746f2063616c6c657200000000000000600082015250565b7f4552433732313a206f70657261746f7220717565727920666f72206e6f6e657860008201527f697374656e7420746f6b656e0000000000000000000000000000000000000000602082015250565b7f4552433732313a20617070726f76652063616c6c6572206973206e6f74206f7760008201527f6e6572206e6f7220617070726f76656420666f7220616c6c0000000000000000602082015250565b7f4552433732313a2062616c616e636520717565727920666f7220746865207a6560008201527f726f206164647265737300000000000000000000000000000000000000000000602082015250565b7f4552433732313a206f776e657220717565727920666f72206e6f6e657869737460008201527f656e7420746f6b656e0000000000000000000000000000000000000000000000602082015250565b7f45524337323155524953746f726167653a2055524920736574206f66206e6f6e60008201527f6578697374656e7420746f6b656e000000000000000000000000000000000000602082015250565b7f4552433732313a206d696e7420746f20746865207a65726f2061646472657373600082015250565b7f45524337323155524953746f726167653a2055524920717565727920666f722060008201527f6e6f6e6578697374656e7420746f6b656e000000000000000000000000000000602082015250565b7f4552433732313a20617070726f76656420717565727920666f72206e6f6e657860008201527f697374656e7420746f6b656e0000000000000000000000000000000000000000602082015250565b7f4f776e61626c653a2063616c6c6572206973206e6f7420746865206f776e6572600082015250565b7f4552433732314d657461646174613a2055524920717565727920666f72206e6f60008201527f6e6578697374656e7420746f6b656e0000000000000000000000000000000000602082015250565b7f4552433732313a20617070726f76616c20746f2063757272656e74206f776e6560008201527f7200000000000000000000000000000000000000000000000000000000000000602082015250565b7f4552433732313a207472616e736665722063616c6c6572206973206e6f74206f60008201527f776e6572206e6f7220617070726f766564000000000000000000000000000000602082015250565b612fc081612861565b8114612fcb57600080fd5b50565b612fd781612873565b8114612fe257600080fd5b50565b612fee8161287f565b8114612ff957600080fd5b50565b613005816128cb565b811461301057600080fd5b5056fea26469706673582212205fb91a5f66bb375bf7fd0a307c1500b2205e0d1f4cfc978bb16ec708cf4bf9c964736f6c63430008010033",
  "linkReferences": {},
  "deployedLinkReferences": {}
}